:020000040800F2
:1000000000500020AD310008093100080B31000814
:100010000D3100080F310008113100080000000008
:100020000000000000000000000000001331000884
:1000300015310008000000001731000819310008D0
:10004000F5310008F5310008F5310008F5310008F8
:10005000F5310008F5310008F5310008F5310008E8
:10006000F5310008F5310008F5310008F5310008D8
:10007000F5310008F5310008213100083131000860
:10008000F5310008F5310008F5310008F5310008B8
:10009000F5310008F5310008F5310008F5310008A8
:1000A000F5310008F5310008F5310008F531000898
:1000B000F531000841310008F5310008F53100083C
:1000C000F5310008F5310008F5310008F531000878
:1000D000F531000851310008F5310008F53100080C
:1000E000F5310008F5310008F53100080000000086
:1000F0000000000000000000000000000000000000
:0C01000000000000000000005FF808F1A3
:10010C0010B5054C237833B9044B13B10448AFF345
:10011C0000800123237010BD44000020000000006B
:10012C004032000808B5034B1BB103490348AFF339
:10013C00008008BD0000000048000020403200088C
:10014C0081F0004102E000BF83F0004330B54FEA7C
:10015C0041044FEA430594EA050F08BF90EA020FE9
:10016C001FBF54EA000C55EA020C7FEA645C7FEA7C
:10017C00655C00F0E2804FEA5454D4EB5555B8BF9F
:10018C006D420CDD2C4480EA020281EA030382EA10
:10019C00000083EA010180EA020281EA0303362DA2
:1001AC0088BF30BD11F0004F4FEA01314FF4801C75
:1001BC004CEA113102D0404261EB410113F0004F87
:1001CC004FEA03334CEA133302D0524263EB43033E
:1001DC0094EA050F00F0A780A4F10104D5F1200EDC
:1001EC000DDB02FA0EFC22FA05F2801841F1000137
:1001FC0003FA0EF2801843FA05F359410EE0A5F10B
:10020C0020050EF1200E012A03FA0EFC28BF4CF03B
:10021C00020C43FA05F3C01851EBE37101F00045F1
:10022C0007D54FF0000EDCF1000C7EEB00006EEBFE
:10023C000101B1F5801F1BD3B1F5001F0CD3490888
:10024C005FEA30004FEA3C0C04F101044FEA4452DF
:10025C0012F5800F80F09A80BCF1004F08BF5FEA66
:10026C00500C50F1000041EB045141EA050130BD46
:10027C005FEA4C0C404141EB010111F4801FA4F1E9
:10028C000104E9D191F0000F04BF01460020B1FA3E
:10029C0081F308BF2033A3F10B03B3F120020CDA76
:1002AC000C3208DD02F1140CC2F10C0201FA0CF054
:1002BC0021FA02F10CE002F11402D8BFC2F1200CB9
:1002CC0001FA02F120FA0CFCDCBF41EA0C0190406F
:1002DC00E41AA2BF01EB0451294330BD6FEA0404B8
:1002EC001F3C1CDA0C340EDC04F11404C4F12002A3
:1002FC0020FA04F001FA02F340EA030021FA04F3B5
:10030C0045EA030130BDC4F10C04C4F1200220FA0B
:10031C0002F001FA04F340EA0300294630BD21FA49
:10032C0004F0294630BD94F0000F83F4801306BF0F
:10033C0081F480110134013D4EE77FEA645C18BF03
:10034C007FEA655C29D094EA050F08BF90EA020F9A
:10035C0005D054EA000C04BF1946104630BD91EA92
:10036C00030F1EBF0021002030BD5FEA545C05D195
:10037C004000494128BF41F0004130BD14F58004D4
:10038C003CBF01F5801130BD01F0004545F0FE4148
:10039C0041F470014FF0000030BD7FEA645C1ABF7D
:1003AC00194610467FEA655C1CBF0B46024650EAB4
:1003BC00013406BF52EA033591EA030F41F40021E0
:1003CC0030BD00BF90F0000F04BF0021704730B566
:1003DC004FF4806404F132044FF000054FF000013B
:1003EC0050E700BF90F0000F04BF0021704730B5FC
:1003FC004FF4806404F1320410F0004548BF4042D1
:10040C004FF000013EE700BF42004FEAE2014FEA25
:10041C0031014FEA02701FBF12F07F4393F07F4F00
:10042C0081F06051704732F07F4208BF704793F003
:10043C007F4F04BF41F40021704730B54FF4607416
:10044C0001F0004521F000411CE700BF50EA010219
:10045C0008BF704730B54FF000050AE050EA0102C2
:10046C0008BF704730B511F0004502D5404261EB32
:10047C0041014FF4806404F132045FEA915C3FF473
:10048C00D8AE4FF003025FEADC0C18BF03325FEA10
:10049C00DC0C18BF033202EBDC02C2F1200300FAC1
:1004AC0003FC20FA02F001FA03FE40EA0E0021FAE6
:1004BC0002F11444BDE600BF70B54FF0FF0C4CF4D4
:1004CC00E06C1CEA11541DBF1CEA135594EA0C0F86
:1004DC0095EA0C0F00F0DEF82C4481EA030621EAC1
:1004EC004C5123EA4C5350EA013518BF52EA0335FC
:1004FC0041F4801143F4801338D0A0FB02CE4FF0AE
:10050C000005E1FB02E506F00042E0FB03E54FF0DD
:10051C000006E1FB03569CF0000F18BF4EF0010ED5
:10052C00A4F1FF04B6F5007F64F5407404D25FEAD1
:10053C004E0E6D4146EB060642EAC62141EA555184
:10054C004FEAC52040EA5E504FEACE2EB4F1FD0CC6
:10055C0088BFBCF5E06F1ED8BEF1004F08BF5FEA44
:10056C00500E50F1000041EB045170BD06F00046F6
:10057C0046EA010140EA020081EA0301B4EB5C04A3
:10058C00C2BFD4EB0C0541EA045170BD41F480119B
:10059C004FF0000E013C00F3AB8014F1360FDEBFC0
:1005AC00002001F0004170BDC4F10004203C35DA9C
:1005BC000C341BDC04F11404C4F1200500FA05F31F
:1005CC0020FA04F001FA05F240EA020001F00042C0
:1005DC0021F0004110EBD37021FA04F642EB060136
:1005EC005EEA430E08BF20EAD37070BDC4F10C0460
:1005FC00C4F1200500FA04F320FA05F001FA04F224
:10060C0040EA020001F0004110EBD37041F100010F
:10061C005EEA430E08BF20EAD37070BDC4F120051A
:10062C0000FA05F24EEA020E20FA04F301FA05F282
:10063C0043EA020321FA04F001F0004121FA04F22A
:10064C0020EA020000EBD3705EEA430E08BF20EAFA
:10065C00D37070BD94F0000F0FD101F00046400034
:10066C0041EB010111F4801F08BF013CF7D041EAB6
:10067C00060195F0000F18BF704703F000465200BA
:10068C0043EB030313F4801F08BF013DF7D043EA8B
:10069C000603704794EA0C0F0CEA135518BF95EA41
:1006AC000C0F0CD050EA410618BF52EA4306D1D1C8
:1006BC0081EA030101F000414FF0000070BD50EAE7
:1006CC00410606BF1046194652EA430619D094EA71
:1006DC000C0F02D150EA013613D195EA0C0F05D15B
:1006EC0052EA03361CBF104619460AD181EA0301AF
:1006FC0001F0004141F0FE4141F470014FF0000067
:10070C0070BD41F0FE4141F4780170BD70B54FF001
:10071C00FF0C4CF4E06C1CEA11541DBF1CEA135581
:10072C0094EA0C0F95EA0C0F00F0A7F8A4EB050463
:10073C0081EA030E52EA03354FEA013100F088805A
:10074C004FEA03334FF0805545EA131343EA126323
:10075C004FEA022245EA111545EA10654FEA0026D8
:10076C000EF000419D4208BF964244F1FD0404F591
:10077C00407402D25B084FEA3202B61A65EB0305ED
:10078C005B084FEA32024FF480104FF4002CB6EBAA
:10079C00020E75EB030E22BFB61A754640EA0C002A
:1007AC005B084FEA3202B6EB020E75EB030E22BF6A
:1007BC00B61A754640EA5C005B084FEA3202B6EBAB
:1007CC00020E75EB030E22BFB61A754640EA9C006A
:1007DC005B084FEA3202B6EB020E75EB030E22BF3A
:1007EC00B61A754640EADC0055EA060E18D04FEAF8
:1007FC00051545EA16754FEA06164FEAC30343EA98
:10080C0052734FEAC2025FEA1C1CC0D111F4801F64
:10081C000BD141EA00014FF000004FF0004CB6E75D
:10082C0011F4801F04BF01430020B4F1FD0C88BFFC
:10083C00BCF5E06F3FF6AFAEB5EB030C04BFB6EB07
:10084C00020C5FEA500C50F1000041EB045170BDFA
:10085C000EF0004E4EEA113114EB5C04C2BFD4EB27
:10086C000C0541EA045170BD41F480114FF0000EAB
:10087C00013C90E645EA060E8DE60CEA135594EA27
:10088C000C0F08BF95EA0C0F3FF43BAF94EA0C0F2A
:10089C000AD150EA01347FF434AF95EA0C0F7FF49F
:1008AC0025AF104619462CE795EA0C0F06D152EAF3
:1008BC0003353FF4FDAE1046194622E750EA4106D7
:1008CC0018BF52EA43067FF4C5AE50EA41047FF4E8
:1008DC000DAF52EA43057FF4EBAE12E74FEA41024B
:1008EC00B2F1E04324BFB3F5001CDCF1FE5C0DD982
:1008FC0001F0004C4FEAC0024CEA5070B2F1004FCC
:10090C0040EB830008BF20F00100704711F0804FCE
:10091C0021D113F13872BCBF01F00040704741F493
:10092C0080114FEA5252C2F11802C2F1200C10FA97
:10093C000CF320FA02F018BF40F001004FEAC1237B
:10094C004FEAD32303FA0CFC40EA0C0023FA02F31F
:10095C004FEA4303CCE77FEA625307D150EA0133F5
:10096C001EBF4FF0FE4040F44000704701F00040C5
:10097C0040F0FE4040F40000704700BF80F00040A3
:10098C0002E000BF81F0004142001FBF5FEA41035B
:10099C0092EA030F7FEA226C7FEA236C6AD04FEA5B
:1009AC001262D2EB1363C1BFD218414048404140A0
:1009BC00B8BF5B42192B88BF704710F0004F40F452
:1009CC00000020F07F4018BF404211F0004F41F46E
:1009DC00000121F07F4118BF494292EA030F3FD03A
:1009EC00A2F1010241FA03FC10EB0C00C3F120034D
:1009FC0001FA03F100F0004302D5494260EB4000DC
:100A0C00B0F5000F13D3B0F1807F06D340084FEA46
:100A1C00310102F10102FE2A51D2B1F1004F40EB3B
:100A2C00C25008BF20F0010040EA030070474900A3
:100A3C0040EB000010F4000FA2F10102EDD1B0FA6E
:100A4C0080FCACF1080CB2EB0C0200FA0CF0AABF63
:100A5C0000EBC25052421843BCBFD0401843704701
:100A6C0092F0000F81F4000106BF80F40000013207
:100A7C00013BB5E74FEA41037FEA226C18BF7FEADE
:100A8C00236C21D092EA030F04D092F0000F08BF20
:100A9C000846704790EA010F1CBF0020704712F007
:100AAC007F4F04D1400028BF40F00040704712F146
:100ABC0000723CBF00F50000704700F0004343F0AB
:100ACC00FE4040F4000070477FEA226216BF0846E1
:100ADC007FEA23630146420206BF5FEA412390EAA4
:100AEC00010F40F4800070474FF0000304E000BF9A
:100AFC0010F0004348BF40425FEA000C08BF70474B
:100B0C0043F0964301464FF000001CE050EA01020E
:100B1C0008BF70474FF000030AE000BF50EA010223
:100B2C0008BF704711F0004302D5404261EB410110
:100B3C005FEA010C02BF84460146002043F0B64335
:100B4C0008BFA3F18053A3F50003BCFA8CF2083A5A
:100B5C00A3EBC25310DB01FA02FC634400FA02FC63
:100B6C00C2F12002BCF1004F20FA02F243EB02006A
:100B7C0008BF20F00100704702F1200201FA02FCCC
:100B8C00C2F1200250EA4C0021FA02F243EB0200BF
:100B9C0008BF20EADC7070474FF0FF0C1CEAD05203
:100BAC001EBF1CEAD15392EA0C0F93EA0C0F6FD0C4
:100BBC001A4480EA010C400218BF5FEA41211ED0A2
:100BCC004FF0006343EA501043EA5111A0FB01318E
:100BDC000CF00040B1F5000F3EBF490041EAD37163
:100BEC005B0040EA010062F17F02FD2A1DD8B3F1DF
:100BFC00004F40EBC25008BF20F00100704790F04E
:100C0C00000F0CF0004C08BF49024CEA502040EA9F
:100C1C0051207F3AC2BFD2F1FF0340EAC250704765
:100C2C0040F400004FF00003013A5DDC12F1190FA3
:100C3C00DCBF00F000407047C2F10002410021FA15
:100C4C0002F1C2F1200200FA02FC5FEA310040F12D
:100C5C00000053EA4C0308BF20EADC70704792F0A6
:100C6C00000F00F0004C02BF400010F4000F013ADE
:100C7C00F9D040EA0C0093F0000F01F0004C02BFD9
:100C8C00490011F4000F013BF9D041EA0C018FE748
:100C9C000CEAD15392EA0C0F18BF93EA0C0F0AD04E
:100CAC0030F0004C18BF31F0004CD8D180EA010074
:100CBC0000F00040704790F0000F17BF90F0004F0D
:100CCC00084691F0000F91F0004F14D092EA0C0FEF
:100CDC0001D142020FD193EA0C0F03D14B0218BF82
:100CEC00084608D180EA010000F0004040F0FE40C8
:100CFC0040F40000704740F0FE4040F44000704764
:100D0C004FF0FF0C1CEAD0521EBF1CEAD15392EAE2
:100D1C000C0F93EA0C0F69D0A2EB030280EA010CD2
:100D2C0049024FEA402037D04FF0805343EA11116B
:100D3C0043EA10130CF000408B4238BF5B0042F1C9
:100D4C007D024FF4000C8B4224BF5B1A40EA0C006E
:100D5C00B3EB510F24BFA3EB510340EA5C00B3EBA0
:100D6C00910F24BFA3EB910340EA9C00B3EBD10F8E
:100D7C0024BFA3EBD10340EADC001B0118BF5FEAE0
:100D8C001C1CE0D1FD2A3FF650AF8B4240EBC25009
:100D9C0008BF20F0010070470CF0004C4CEA5020CA
:100DAC007F32C2BFD2F1FF0340EAC250704740F419
:100DBC0000004FF00003013A37E792F0000F00F00B
:100DCC00004C02BF400010F4000F013AF9D040EA89
:100DDC000C0093F0000F01F0004C02BF490011F41D
:100DEC00000F013BF9D041EA0C0195E70CEAD15315
:100DFC0092EA0C0F08D142027FF47DAF93EA0C0FFC
:100E0C007FF470AF084676E793EA0C0F04D14B02DF
:100E1C003FF44CAF08466EE730F0004C18BF31F091
:100E2C00004CCAD130F000427FF45CAF31F000438B
:100E3C007FF43CAF5FE700BF4FF0FF3C06E000BF24
:100E4C004FF0010C02E000BF4FF0010C4DF804CD47
:100E5C004FEA40024FEA41037FEA226C18BF7FEA57
:100E6C00236C11D001B052EA530C18BF90EA010F59
:100E7C0058BFB2EB030088BFC81738BF6FEAE170E8
:100E8C0018BF40F0010070477FEA226C02D15FEA84
:100E9C00402C05D17FEA236CE4D15FEA412CE1D0F0
:100EAC005DF8040B704700BF844608466146FFE7B7
:100EBC000FB5FFF7C9FF002848BF10F1000F0FBD99
:100ECC004DF808EDFFF7F4FF0CBF012000205DF892
:100EDC0008FB00BF4DF808EDFFF7EAFF34BF012017
:100EEC0000205DF808FB00BF4DF808EDFFF7E0FFB0
:100EFC0094BF012000205DF808FB00BF4DF808ED01
:100F0C00FFF7D2FF94BF012000205DF808FB00BF63
:100F1C004DF808EDFFF7C8FF34BF012000205DF845
:100F2C0008FB00BF42000ED2B2F1FE4F0BD34FF0C4
:100F3C009E03B3EB126209D44FEA002343F0004343
:100F4C0023FA02F070474FF00000704712F1610F66
:100F5C0001D1420202D14FF0FF3070474FF0000038
:100F6C00704700BF10B504460E4B18784FF47A73D7
:100F7C00B3FBF0F30C4A1068B0FBF3F000F08EF802
:100F8C0068B90F2C01D901200AE0002221464FF04C
:100F9C00FF3000F041F8034B5C60002000E00120C2
:100FAC0010BD00BF000000204000002008B5074A1B
:100FBC00136843F010031360032000F01BF80020AB
:100FCC00FFF7D0FF01F0A8FF002008BD0020024071
:100FDC00034A1168034B1B780B441360704700BF26
:100FEC008C00002000000020014B1868704700BFE7
:100FFC008C000020074AD36823F4E0631B041B0C0D
:10100C00000200F4E060184340F0BF6040F4003090
:10101C00D060704700ED00E030B4174BDB68C3F3D1
:10102C000223C3F10704042C28BF04241D1D062D24
:10103C0018D9033B4FF0FF3505FA04F421EA0401FB
:10104C00994005FA03F322EA0303194300280BDB4A
:10105C000901C9B200F1604000F5614080F800134D
:10106C0030BC70470023E5E700F00F000901C9B25E
:10107C00024B1954F4E700BF00ED00E014ED00E062
:10108C00002807DB00F01F02400901239340024AAD
:10109C0042F82030704700BF00E100E00138B0F1A9
:1010AC00807F0AD2064B5860064AF02182F8231042
:1010BC000020986007221A6070470120704700BF1B
:1010CC0010E000E000ED00E070B4066CC56B01248C
:1010DC00B4406C60046863604368102B05D00368EF
:1010EC0099600368DA6070BC704703689A600368A3
:1010FC00D960F8E760B310B402460168154B0B4495
:10110C001548A0FB03031B099B001364134BD3630B
:10111C00022382F82130086820F47F5020F0300040
:10112C00536894682343D468234314692343546954
:10113C00234394692343D469234303430B60002066
:10114C009063012382F8213082F8200010BC704794
:10115C0001207047F8FFFDBFCDCCCCCC0000024085
:10116C0038B590F82040012C32D0012480F8204072
:10117C0090F82140012C04D0002380F8203002206C
:10118C0038BD0446022084F821000020A0632568A5
:10119C00286820F0010028602046FFF795FFE36ADD
:1011AC005BB12268136843F00E0313602268136866
:1011BC0043F0010313600020E2E72268136823F078
:1011CC00040313602268136843F00A031360EDE70D
:1011DC000220D5E708B590F82130022B03D0042368
:1011EC008363012008BD0268136823F00E031360AB
:1011FC000268136823F0010313600368194A9342D1
:10120C0014D0143293421FD0143293421ED0143295
:10121C0093421ED0143293421ED01432934202D009
:10122C004FF0807203E04FF4801200E001220E4B6D
:10123C005A60012380F82130002380F82030436B62
:10124C006BB198470020CDE71022F0E74FF4807285
:10125C00EDE74FF48052EAE74FF48032E7E70020E5
:10126C00C0E700BF080002400000024038B5C36B65
:10127C001A6804682568016C04238B40134235D02E
:10128C0015F0040F32D0236813F0200F03D123681C
:10129C0023F0040323600368434A934214D01432AE
:1012AC00934218D01432934217D01432934217D071
:1012BC001432934217D01432934202D04FF0806212
:1012CC0003E04FF4800200E00422384B5A60C36AFA
:1012DC0003B1984738BD4022F7E74FF48062F4E73A
:1012EC004FF48042F1E74FF48022EEE702238B406B
:1012FC0013423CD015F0020F39D0236813F0200FA5
:10130C0006D1236823F00A032360012380F82130DF
:10131C000368254A934214D0143293421CD01432E1
:10132C0093421BD0143293421BD0143293421BD0E5
:10133C001432934202D04FF0007203E04FF40012CB
:10134C0000E00222194B5A60002380F82030836A97
:10135C00002BBFD09847BDE72022F3E74FF4007273
:10136C00F0E74FF40052EDE74FF40032EAE70823C0
:10137C0003FA01F11142ADD015F0080FAAD0236881
:10138C0023F00E032360026CC16B012303FA02F2FB
:10139C004A60836380F82130002380F82030036B8F
:1013AC00002B97D0984795E70800024000000240B8
:1013BC00F0B482B000263246A2E0002D5AD0012DA6
:1013CC0000D1CE68FF2B69D88446FF2B69D89500D5
:1013DC00DCF800400F27AF4024EA070406FA05F5B5
:1013EC002C43CCF800404C6814F0805F00F08780F0
:1013FC005F4CA56945F00105A561A46904F00104E1
:10140C000194019C9508AF1C5A4C54F8274002F0EB
:10141C000307BF004FF00F0C0CFA07FC24EA0C0C6E
:10142C00554CA04243D004F58064A04200F081806A
:10143C0004F58064A0427ED004F58064A04234D0D0
:10144C00042435E04D4FBD4214D00BD94C4FBD4256
:10145C0010D007F58037BD420CD0A7F58017BD42E0
:10146C00B0D107E0A7F58017BD4203D007F5803750
:10147C00BD42A7D18D687DB1012D08D044610826ED
:10148C00A0E7CE6808369DE7CE680C369AE7046173
:10149C00082697E7002695E7042693E700F1040C4D
:1014AC0093E7A2F10805AD0092E7032400E00024C5
:1014BC00BC4044EA0C0402352E4F47F825404C68DA
:1014CC0014F4803F39D02F4D2C681C432C604C6891
:1014DC0014F4003F37D02B4D6C681C436C604C6887
:1014EC0014F4801F35D0274DAC681C43AC604C689D
:1014FC0014F4001F33D0234DEC682343EB6001320E
:10150C000B6833FA02F430D00124944023409C42FF
:10151C00F5D14D68122DB7D094D8022DB1D07FF6ED
:10152C004CAF032DB6D0112D7FF44CAFCE680436E2
:10153C0048E70124BCE70224BAE7124D2C6824EAE0
:10154C0003042C60C3E70F4D6C6824EA03046C6041
:10155C00C5E70C4DAC6824EA0304AC60C7E7094D41
:10156C00EC6824EA0303EB60C9E702B0F0BC7047F7
:10157C000010024000000140000801400000211052
:10158C0000003110000401408368194201D1002091
:10159C0070470120704712B909040161704701615D
:1015AC007047000082B0084B1B68084AA2FB03235B
:1015BC005B0A00FB03F0019000BF019B5A1E0192D5
:1015CC00002BF9D102B0704740000020D34D6210BF
:1015DC00002800F0F58170B582B00446036813F062
:1015EC00010F2CD0AB4B5B6803F00C03042B1DD00C
:1015FC00A84B5B6803F00C03082B12D06368B3F59F
:10160C00803F41D0002B55D103F1804303F50433C7
:10161C001A6822F480321A601A6822F480221A6046
:10162C0037E09C4B5B6813F4803FE7D0994B1B6809
:10163C0013F4003F03D06368002B00F0C3812368D0
:10164C0013F0020F76D0934B5B6813F00C0F5FD046
:10165C00904B5B6803F00C03082B54D02369002BD0
:10166C0000F08A808C4B01221A60FFF7BDFC054606
:10167C00884B1B6813F0020F75D1FFF7B5FC401BAC
:10168C000228F5D90320A0E1824A136843F4803381
:10169C001360636843B3FFF7A7FC05467D4B1B68DB
:1016AC0013F4003FCBD1FFF79FFC401B6428F5D906
:1016BC0003208AE1B3F5A02F09D0764B1A6822F4E7
:1016CC0080321A601A6822F480221A60E1E703F172
:1016DC008043A3F53C331A6842F480221A601A68DE
:1016EC0042F480321A60D4E7FFF77EFC0546694B62
:1016FC001B6813F4003FA2D0FFF776FC401B642854
:10170C00F5D9032061E1634B5B6813F4803FA5D1ED
:10171C00604B1B6813F0020F04D02369012B01D01E
:10172C00012052E15B4A136823F0F803616943EA34
:10173C00C1031360236813F0080F32D0A369002B88
:10174C005BD0564B01221A60FFF74EFC0546514BFD
:10175C005B6A13F0020F21D1FFF746FC401B0228F5
:10176C00F5D9032031E14B4A136823F0F803616982
:10177C0043EAC1031360DDE7474B00221A60FFF711
:10178C0033FC0546434B1B6813F0020FD2D0FFF716
:10179C002BFC401B0228F5D9032016E10120FFF792
:1017AC0001FF236813F0040F00F09880394BDB69BC
:1017BC0013F0805F33D1374BDA6942F08052DA6133
:1017CC00DB6903F080530193019B0125344B1B68AB
:1017DC0013F4807F25D0E368012B36D0002B4CD13D
:1017EC0003F1804303F504331A6A22F001021A62F2
:1017FC001A6A22F004021A622CE0284B00221A60AA
:10180C00FFF7F2FB0546234B5B6A13F0020FC8D0BF
:10181C00FFF7EAFB401B0228F5D90320D5E0002591
:10182C00D4E71F4A136843F480731360FFF7DCFBA3
:10183C0006461B4B1B6813F4807FCCD1FFF7D4FBFF
:10184C00801B6428F5D90320BFE0124A136A43F0C9
:10185C0001031362E3687BB3FFF7C6FB06460D4B2F
:10186C001B6A13F0020F38D1FFF7BEFB801B41F24D
:10187C0088339842F3D90320A7E0052B12D0054BEF
:10188C001A6A22F001021A621A6A22F004021A621F
:10189C00E0E700BF001002400000424280044242D8
:1018AC00007000404C4B1A6A42F004021A621A6A29
:1018BC0042F001021A62CDE7FFF796FB0646464B53
:1018CC001B6A13F0020F08D0FFF78EFB801B41F24E
:1018DC0088339842F3D9032077E0E5B9E369002B0C
:1018EC0072D03D4A526802F00C02082A56D0022BE4
:1018FC0017D03A4B00221A60FFF776FB0446364BA2
:10190C001B6813F0007F47D0FFF76EFB001B02280B
:10191C00F5D9032059E0304AD36923F08053D361C1
:10192C00DCE72E4B00221A60FFF75EFB05462A4BC4
:10193C001B6813F0007F06D0FFF756FB401B0228F4
:10194C00F5D9032041E0236AB3F5803F1AD0224930
:10195C004B6823F47413226A606A024313434B608E
:10196C001E4B01221A60FFF73FFB04461A4B1B6803
:10197C0013F0007F0ED1FFF737FB001B0228F5D9BF
:10198C00032022E0144A536823F40033A1680B436C
:10199C005360DCE7002018E0002016E0012B16D085
:1019AC000D4B5B6803F48031226A914201D0012017
:1019BC000BE003F47013626A93420AD0012004E036
:1019CC0001207047012000E0002002B070BD012012
:1019DC00FBE70020F9E700BF001002406000424224
:1019EC0010B487B0164C94E80F000DF1180C0CE9EC
:1019FC000F00238AADF80430124B5B6803F00C0225
:101A0C00082A1AD1C3F38342624412F8102C13F43F
:101A1C00803F05D10C4800FB02F007B010BC7047AA
:101A2C00084B5B68C3F34043634413F8143C07480A
:101A3C0000FB02F0B0FBF3F0EFE70448EDE700BF6A
:101A4C00583200080010024000093D0000127A00D4
:101A5C00002800F0A38070B50446524B1B6803F0BD
:101A6C0007038B420CD24F4A136823F007030B4336
:101A7C001360136803F007038B4201D0012070BD83
:101A8C00236813F0020F17D013F0040F04D0464A4A
:101A9C00536843F4E0635360236813F0080F04D0D9
:101AAC00414A536843F4605353603F4A536823F0F0
:101ABC00F003A068034353600D46236813F0010F35
:101ACC0031D06368012B20D0022B25D0364A126806
:101ADC0012F0020F64D034494A6822F00302134317
:101AEC004B60FFF781FA06462F4B5B6803F00C0343
:101AFC006268B3EB820F16D0FFF776FA801B41F2C7
:101B0C0088339842F0D90320B9E7274A126812F4B7
:101B1C00003FE0D10120B2E7234A126812F0007FA7
:101B2C00D9D10120ABE71F4B1B6803F00703AB4275
:101B3C000CD91C4A136823F007032B43136013685A
:101B4C0003F00703AB4201D0012098E7236813F0A0
:101B5C00040F06D0144A536823F4E063E1680B4386
:101B6C005360236813F0080F07D00F4A536823F40F
:101B7C006053216943EAC1035360FFF731FF0A4BFD
:101B8C005B68C3F30313094AD35CD840084B186055
:101B9C00084B1868FFF7E6F9002070E70120704742
:101BAC0001206CE700200240001002406C3200085B
:101BBC004000002004000020014B1868704700BF53
:101BCC004000002008B5FFF7F7FF044B5B68C3F338
:101BDC000223034AD35CD84008BD00BF001002406A
:101BEC007C32000808B5FFF7E7FF044B5B68C3F3D2
:101BFC00C223034AD35CD84008BD00BF001002408A
:101C0C007C32000870B4036A23F001030362036A98
:101C1C004268846924F073040D6845EA040623F0D5
:101C2C0002048B6823430D4DA84209D00B4DA842EA
:101C3C000DD0426086614A684263036270BC704793
:101C4C0023F00803CC68234323F00403EEE722F4CB
:101C5C0040724C6914438A692243EAE7002C014024
:101C6C0030B4036A23F480730362036A4268C46964
:101C7C0024F073040D682C4323F400738D6843EA3D
:101C8C0005230F4DA84209D00D4DA8420ED042603D
:101C9C00C4614A68C263036230BC704723F40063BA
:101CAC00CD6843EA052323F48063EDE722F4405228
:101CBC004D6942EA05128D6942EA0512E7E700BF59
:101CCC00002C014030B4036A23F480530362036A8E
:101CDC004468C26922F4E6420D6842EA052223F404
:101CEC0000538D6843EA0533074DA84206D0446083
:101CFC00C2614A680264036230BC704724F48044B9
:101D0C004D6944EA8514F2E7002C014010B4036AD3
:101D1C00046A24F001040462846924F0F00444EAA7
:101D2C00021223F00A030B438261036210BC70475A
:101D3C0010B4036A23F0100303628469036A24F469
:101D4C00704444EA023223F0A00343EA0113826197
:101D5C00036210BC7047836823F07003194341F091
:101D6C000701816070470268D36843F00103D360B8
:101D7C000268936803F00703062B03D0136843F043
:101D8C00010313600020704770477047704770471D
:101D9C00704710B5044603681A6912F0020F11D08F
:101DAC00DA6812F0020F0DD06FF002021A610123F3
:101DBC00037703689B6913F0030F70D0FFF7E6FFFE
:101DCC000023237723681A6912F0040F12D0DA6803
:101DDC0012F0040F0ED06FF004021A610223237765
:101DEC0023689B6913F4407F5FD02046FFF7CEFF3A
:101DFC000023237723681A6912F0080F12D0DA68CF
:101E0C0012F0080F0ED06FF008021A61042323772A
:101E1C002368DB6913F0030F4ED02046FFF7B6FFA3
:101E2C000023237723681A6912F0100F12D0DA6896
:101E3C0012F0100F0ED06FF010021A6108232377E6
:101E4C002368DB6913F4407F3DD02046FFF79EFFEB
:101E5C000023237723681A6912F0010F03D0DA6884
:101E6C0012F0010F36D123681A6912F0800F03D0DB
:101E7C00DA6812F0800F34D123681A6912F0400F1F
:101E8C0003D0DA6812F0400F32D123681A6912F0CD
:101E9C00200F03D0DA6812F0200F30D110BDFFF7FD
:101EAC0074FF2046FFF773FF8AE72046FFF76DFFAC
:101EBC002046FFF76CFF9BE72046FFF766FF2046A6
:101ECC00FFF765FFACE72046FFF75FFF2046FFF703
:101EDC005EFFBDE76FF001021A61204600F0ACFE18
:101EEC00C1E76FF080021A61204600F0E5F9C3E704
:101EFC006FF040021A612046FFF74AFFC5E76FF00A
:101F0C0020021A61204600F0D6F9C7E703681B4A85
:101F1C0090420AD0B0F1804F07D0A2F59432904293
:101F2C0003D002F58062904203D123F070034A681B
:101F3C001343124A90420AD0B0F1804F07D0A2F559
:101F4C009432904203D002F58062904203D123F484
:101F5C004073CA68134323F080034A691343036038
:101F6C008B68C3620B688362044B984202D00123D6
:101F7C00436170470B690363F9E700BF002C014014
:101F8C00A8B110B5044690F83D305BB1022384F83B
:101F9C003D30211D2068FFF7B9FF012384F83D3047
:101FAC00002010BD80F83C3000F0D8FFEEE7012097
:101FBC007047A8B110B5044690F83D305BB10223D0
:101FCC0084F83D30211D2068FFF7A0FF012384F821
:101FDC003D30002010BD80F83C30FFF7D5FEEEE719
:101FEC000120704730B4036A23F010030362036AC4
:101FFC004468826922F4E6420D6842EA052223F025
:10200C0020038D6843EA05130E4DA84209D00D4DEF
:10201C00A8420ED0446082614A688263036230BC7D
:10202C00704723F08003CD6843EA051323F0400387
:10203C00EDE724F440644D6944EA85048D6944EA73
:10204C008504E7E7002C014038B590F83C30012BB3
:10205C0066D00D460446012380F83C30022380F8FC
:10206C003D300C2A1AD8DFE802F00719191920198B
:10207C0019193419191947000068FFF7C3FD2268B4
:10208C00936943F0080393612268936923F0040376
:10209C0093612268936929690B439361012384F846
:1020AC003D30002084F83C0038BD0068FFF79AFFF3
:1020BC002268936943F4006393612268936923F463
:1020CC008063936122689369296943EA01239361D0
:1020DC00E4E70068FFF7C4FD2268D36943F0080306
:1020EC00D3612268D36923F00403D3612268D369D6
:1020FC0029690B43D361D1E70068FFF7E3FD226840
:10210C00D36943F40063D3612268D36923F48063F9
:10211C00D3612268D369296943EA0123D361BDE7FE
:10212C000220C1E710B4846824F47F4442EA0323FC
:10213C000B432343836010BC704790F83C30012B59
:10214C0066D010B50446012380F83C30022380F899
:10215C003D300268936823F47F4323F07703936048
:10216C000B68402B4AD013D9602B3DD01ED9702B55
:10217C0028D0B3F5005F30D1CB684A688968006815
:10218C00FFF7D0FF2268936843F48043936024E008
:10219C00102B06D004D9202B03D0302B01D01CE0FF
:1021AC00DBB919462068FFF7D6FD16E0502B14D189
:1021BC00CA6849680068FFF7A9FD50212068FFF73D
:1021CC00CAFD0AE0CB684A6889680068FFF7AAFF75
:1021DC002268936843F077039360012384F83D30C1
:1021EC00002084F83C0010BDCA6849680068FFF7FD
:1021FC009FFD60212068FFF7AEFDEEE7CA684968D5
:10220C000068FFF783FD40212068FFF7A4FDE4E799
:10221C000220704710B401F01F01012303FA01F4EE
:10222C00036A23EA04030362036A8A4013430362CA
:10223C0010BC704710B5044601220068FFF7EAFF96
:10224C0023680A4A93420BD02268936803F0070371
:10225C00062B03D0136843F001031360002010BD5C
:10226C005A6C42F400425A64EEE700BF002C014065
:10227C0090F83C30012B1CD070B4012680F83C60E7
:10228C00022380F83D3002685568936825F070058C
:10229C000C682C4323F080054B682B435460026878
:1022AC00936080F83D60002380F83C30184670BC89
:1022BC00704702207047704770470268D36823F05C
:1022CC00C003D360202380F8393070470268D3688C
:1022DC0023F49073D3600268536923F001035361B4
:1022EC00202380F83A30704790F83930DBB2212B3C
:1022FC002AD18368B3F5805F16D0036A5A1C026238
:10230C001A7803685A60C38C013B9BB2C384EBB947
:10231C000268D36823F08003D3600268D36843F06B
:10232C004003D36000207047036A1B880268C3F324
:10233C000803536003691BB9036A02330362E2E7C3
:10234C00036A01330362DEE7022070470020704706
:10235C0038B504460268136923F44053C1680B4333
:10236C00136183680269134342691A430168CB689D
:10237C0023F4B05323F00C031343CB60026853696E
:10238C0023F4407381690B4353610268214B9A42D9
:10239C001FD0FFF717FC00EB800000EB8000636898
:1023AC009B00B0FBF3F01C4DA5FB003251096422DD
:1023BC0002FB110213013233A5FB03235B0903F06B
:1023CC00F00202EB011203F00F03216813448B603F
:1023DC0038BDFFF707FC00EB800000EB8000636862
:1023EC009B00B0FBF3F00C4DA5FB003251096422AD
:1023FC0002FB110213013233A5FB03235B0903F02B
:10240C00F00202EB011203F00F03216813448B60FE
:10241C00DEE700BF003801401F85EB5158B310B503
:10242C00044690F839300BB3242384F839302268F1
:10243C00D36823F40053D3602046FFF789FF22684A
:10244C00136923F4904313612268536923F02A0320
:10245C0053612268D36843F40053D3600020E063D7
:10246C00202384F8393084F83A3010BD80F83830A5
:10247C0000F0CCFDD8E701207047000030B583B0E8
:10248C0090F83A40E4B2202C3DD100293ED0002AED
:10249C003ED090F83830012B3CD013460A46044607
:1024AC00012180F83810826283850025C5632221C2
:1024BC0080F83A10416B18488862616B1748C86203
:1024CC00616B17480863616B4D6321680431606B65
:1024DC00FEF746FE019523681A6801925A6801922C
:1024EC00019A84F83850DA6842F48072DA60226813
:1024FC00536943F0010353612268536943F040036D
:10250C005361284600E0022003B030BD0120FBE7F8
:10251C000120F9E70220F7E74D25000829260008DD
:10252C0035260008704708B50168CB6823F04003D6
:10253C00CB60202380F83930FFF7F4FF002008BD72
:10254C0008B5436A0268126812F0200F13D10022FA
:10255C00DA851968CA6822F48072CA6019684A69F7
:10256C0022F001024A6119684A6922F040024A616C
:10257C00202283F83A20184600F0C2FA08BD08B5AC
:10258C0090F83A30DBB2222B45D18368B3F5805FEB
:10259C000ED0036903BB03685A68836A591C8162B5
:1025AC001A70C38D013B9BB2C385F3B1002033E09D
:1025BC00826A036943B903685B68C3F30803138039
:1025CC00836A02338362ECE703685B68DBB21380D7
:1025DC00836A01338362E4E703685B68826A511C97
:1025EC00816203F07F031370DBE70268D36823F08A
:1025FC002003D3600268D36823F48073D36002682D
:10260C00536923F001035361202380F83A3000F022
:10261C0077FA002000E0022008BD704708B5406A38
:10262C00FFF7FBFF08BD704710B5446A23685A6971
:10263C0094F83930DBB2212B10D023685A6902F0A0
:10264C00400294F83A30DBB2222B11D0E36B43F00A
:10265C001003E3632046FFF7E6FF10BD02F0800293
:10266C00002AEAD00023E3842046FFF726FEE4E7A5
:10267C00002AEBD00023E3852046FFF727FEE5E791
:10268C0010B5044602681368D168526913F00F0044
:10269C0005D113F0200F02D011F0200F53D10028D8
:1026AC0067D012F0010202D111F4907F61D013F0C7
:1026BC00010F06D011F4807F03D0E06B40F00100D5
:1026CC00E06313F0040F04D01AB1E06B40F0020089
:1026DC00E06313F0020F04D01AB1E06B40F0040079
:1026EC00E06313F0080F04D01AB1E26B42F0080259
:1026FC00E263E26B002A48D013F0200F02D011F0F5
:10270C00200F24D123685B6903F04003E26B12F0C5
:10271C00080F00D13BB32046FFF7D8FD23685A6958
:10272C0012F0400F1BD05A6922F040025A61636BC1
:10273C008BB11A4A5A63606BFEF74CFD28B3606B81
:10274C00436B984721E02046FFF719FF1DE0204618
:10275C00FFF715FFD6E72046FFF765FF15E020468B
:10276C00FFF761FF11E02046FFF75DFF0023E363F5
:10277C000BE013F0800F02D011F0800F06D113F094
:10278C00400F02D011F0400F04D110BD2046FFF7CE
:10279C00ABFDFAE72046FFF7C6FEF6E7AD270008CB
:1027AC0008B5406A0023C385C384FFF73CFF08BD0E
:1027BC002DE9F04F83B0044608461146FEF7E2F8C7
:1027CC000546E060D4F810A0C4F814A02061A66AF5
:1027DC00E66227680146FEF7D5F801463846FEF753
:1027EC00DBF90746E0616068FDF70EFE00222B4B1B
:1027FC00FDF762FE80468946D4F818B05846FDF7BE
:10280C0003FE02460B4640464946FDF755FE804600
:10281C00894629462846FEF7B7F80190FDF7F4FDE6
:10282C0002460B4640464946FDF746FEFEF756F873
:10283C00804620625946A068FEF762FA81460199EB
:10284C002846FEF79FF801465046FEF79DF80146D4
:10285C004846FEF7A1F90546606239463046FEF758
:10286C0093F801464046FEF78FF801462846FEF7DE
:10287C008BF80646A062256B2946FEF749FB40B94A
:10288C0005F1004529463046FEF724FB10B1A56240
:10289C0000E0A562A06A03B0BDE8F08F0000E03F45
:1028AC0010B50C4C002202212046FEF774FE0122CA
:1028BC0011462046FEF76FFE01224FF48061204640
:1028CC00FEF769FE00224FF400612046FEF763FE1E
:1028DC0010BD00BF000C014010B50C4C01220221B0
:1028EC002046FEF758FE002201212046FEF753FE3B
:1028FC0000224FF480612046FEF74DFE01224FF47A
:10290C0000612046FEF747FE10BD00BF000C0140E1
:10291C0030B589B000240494059406940794214B97
:10292C009A6942F020029A619A6902F0200201929F
:10293C00019A9A6942F008029A619A6902F00802B7
:10294C000292029A9A6942F004029A619B6903F01E
:10295C0004030393039B144D224640F6034128467F
:10296C00FEF719FE40F603430493012305930694E6
:10297C000223079304A92846FEF71AFD4FF40043DF
:10298C0004930594069404A90848FEF711FD382316
:10299C0004930594069404A92846FEF709FD09B092
:1029AC0030BD00BF00100240000C01400008014087
:1029BC0030B587B0002402940394049405940094D9
:1029CC0001940E4D0E4B2B6041F61F436B60AC60B7
:1029DC00C723EB602C61AC612846FFF7D1FA4FF4AA
:1029EC008053029302A92846FFF7A7FB0094019499
:1029FC0069462846FFF73CFC07B030BDD8000020E4
:102A0C000004004030B58FB000240A940B940C9451
:102A1C000D940894099401940294039404940594DD
:102A2C0006940794184D194B2B6009236B60AC600E
:102A3C00FE23EB602C61AC612846FFF7A1FA4FF442
:102A4C0080530A930AA92846FFF777FB2846FFF71D
:102A5C00B0FA0894099408A92846FFF709FC6023EA
:102A6C000193029403940594082201A92846FFF7C8
:102A7C00EBFA0C2201A92846FFF7E6FA284600F0EB
:102A8C009DFA0FB030BD00BF94000020000800403C
:102A9C0000B583B00E4B5A6942F001025A615B6972
:102AAC0003F001030193019B002211460E20FEF757
:102ABC00B3FA0E20FEF7E4FA002211460F20FEF7BF
:102ACC00ABFA0F20FEF7DCFA03B05DF804FB00BF95
:102ADC000010024008B50848084B03604FF4165329
:102AEC00436000238360C36003610C2242618361F5
:102AFC00C361FFF793FC08BDA00100200038014022
:102B0C0038B502682D4B1B689A4200D038BD2C4B4F
:102B1C001B780BB3012BF9D12A4C012221462748F3
:102B2C00FFF7ACFC2378662B30D0622B2ED0722BA7
:102B3C002CD06C2B2AD0692B32D0642B34D06B2B3D
:102B4C00E4D11F4C0023237201221E491B48FFF7BE
:102B5C0095FC01232370D9E71A4B1B78732B0AD0F1
:102B6C00312BD9D1164B00221A700122154913486A
:102B7C00FFF784FCCAE7124B5A6801325A600122F3
:102B8C001A7010490D48FFF779FCBFE70C4B022275
:102B9C001A7201221A700B490848FFF76FFCB5E74F
:102BAC00074B03221A72B1E7054D01242C72224601
:102BBC0004490248FFF762FC2C70A7E7A001002033
:102BCC0060000020E401002008B5194B1B78623B23
:102BDC00102B12D8DFE803F0231111111B11111166
:102BEC0011110911111111111200FFF759FE114B9E
:102BFC001B686422DA63C8221A6408BDFFF750FE12
:102C0C000C4B1B68C822DA6364221A64F5E7FFF7E1
:102C1C0047FE084B1B68D222DA631A64EDE7FFF714
:102C2C005BFE044B1B68D222DA631A64E5E700BF33
:102C3C00E40100209400002038B502687A4B9A42D7
:102C4C0000D038BD794B1B7A012B0CD0022B00F035
:102C5C00E780032B01D0002BF3D1754B1B680022AE
:102C6C00DA631A64EDE7734D20212846FEF78CFCDD
:102C7C00714CE07010212846FEF786FCA0700821EC
:102C8C002846FEF781FC60704FF400416B48FEF75C
:102C9C007BFC2070002300E00133032B0CDC664A24
:102CAC00D25C002AF8D1614AD1680131D160581C3C
:102CBC00116901441161EFE75C4B186906281DD0BE
:102CCC0009284BD00A284DD0FDF712FF0546574C6A
:102CDC00E068FDF70DFF01462846FEF711F80546A2
:102CEC00E06100232361E3604FF08041FEF7E8F8D8
:102CFC00002844D0524B534A1A6002E0504B524ABF
:102D0C001A604F4C2168494B996100252A464F485F
:102D1C00FFF74EFD4E4B186029462068FEF7D0F8A1
:102D2C00002869D10021464B1868FEF7F1F80028FD
:102D3C006AD10021424B1868FEF7CCF8002880D0ED
:102D4C00FFF7AEFD3A4B1C680023E363404B186859
:102D5C0000F10040FEF7E6F8206472E7384B3D4A7C
:102D6C001A60CEE7314A536901335361052BC8D140
:102D7C0013469169324A116000225A61C1E7364903
:102D8C002846FEF79DF818B12D4B344A1A60B8E767
:102D9C004FF07E512846FEF793F820B1284B4FF0A8
:102DAC0040421A60ADE74FF081412846FEF788F8A3
:102DBC0020B1234B4FF080421A60A2E74FF07F51B5
:102DCC002846FEF77DF818B11D4B254A1A6098E786
:102DDC0024492846FEF774F818B1194B00221A60E2
:102DEC008FE721492846FEF76BF8002889D0144B51
:102DFC004FF07F521A6084E7FFF752FD0C4B1B68B3
:102E0C00C822DA631A648DE7FFF74AFD084B1C6889
:102E1C000F4B1868FEF786F8E0630023236488E7FD
:102E2C00FFF7D2FE0DE700BF000400406000002059
:102E3C0094000020000C0140D40000200008014048
:102E4C00E00100209A9999BF9A99D9BF08000020F7
:102E5C00900000209A99D93F000040409A99993FE0
:102E6C000000C0BF000020400000604030B591B0B1
:102E7C000024089409940B940C94019402940394E8
:102E8C0004940594012206924FF4803307930A921E
:102E9C0002250D950E934FF4E0130F9306A8FEF741
:102EAC0097FB0F230193029503944FF480630493D3
:102EBC000594294601A8FEF7CBFD11B030BD0000EA
:102ECC0008B5FEF773F8FFF7D1FFFFF721FDFFF709
:102EDC0099FDFFF76DFDFFF7DBFDFFF7FBFD094CDF
:102EEC0008212046FFF7A6F90C212046FFF7A2F98E
:102EFC000548FEF738FF012204490548FFF7BEFAE2
:102F0C00FEE700BF94000020D8000020E401002060
:102F1C00A00100207047000082B00E4B9A6942F06D
:102F2C0001029A619A6902F001020092009ADA6930
:102F3C0042F08052DA61DB6903F080530193019B0C
:102F4C00054A536823F0E06343F00073536002B00A
:102F5C00704700BF001002400000014000B583B074
:102F6C000368134A934205D0124A934215D003B01A
:102F7C005DF804FB104BDA6942F00202DA61DB699E
:102F8C0003F002030093009B002211461D20FEF764
:102F9C0043F81D20FEF774F8E9E7074BDA6942F0B5
:102FAC000402DA61DB6903F004030193019BDEE7A1
:102FBC0000040040000800400010024000B587B03B
:102FCC000023029303930493059302680D4B9A42DA
:102FDC0002D007B05DF804FB03F502339A6942F0A6
:102FEC0008029A619B6903F008030193019B4FF45B
:102FFC004073029302230393059302A90248FEF740
:10300C00D7F9E6E700080040000C014070B586B027
:10301C00002302930393049305930268314B9A4265
:10302C0001D006B070BD044603F558439A6942F4CA
:10303C0080429A619A6902F480420092009A9A69DD
:10304C0042F004029A619B6903F004030193019B13
:10305C004FF4007302930223039303230593224E30
:10306C0002A93046FEF7A4F94FF4806302930025C1
:10307C000395049502A93046FEF79AF91B481C4BA0
:10308C000360456085608023C3600561456185618F
:10309C00C561FEF72FF8F0B9144B63635C621548F9
:1030AC00154B036010234360002383608022C260B1
:1030BC00036143618361C361FEF71CF870B90D4B6A
:1030CC0023635C62002211462520FDF7A5FF252015
:1030DC00FDF7D6FFA5E7FFF71DFFDDE7FFF71AFFAA
:1030EC00EDE700BF00380140000801405C01002002
:1030FC005800024018010020440002407047FEE7CF
:10310C00FEE7FEE7FEE770477047704708B5FDF72E
:10311C005FFF08BD08B50248FEF7A8F808BD00BF60
:10312C001801002008B50248FEF7A0F808BD00BF42
:10313C005C01002008B50248FEF72BFE08BD00BF5D
:10314C00D800002008B50248FFF79AFA08BD00BF66
:10315C00A00100200F4B1A6842F001021A60596856
:10316C000D4A0A405A601A6822F0847222F48032A6
:10317C001A601A6822F480221A605A6822F4FE023D
:10318C005A604FF41F029A60044B4FF000629A6031
:10319C00704700BF001002400000FFF800ED00E097
:1031AC00002103E00B4B5B58435004310A480B4B96
:1031BC0042189A42F6D30A4A02E0002342F8043B32
:1031CC00084B9A42F9D3FFF7C5FF00F00FF8FFF751
:1031DC0077FE70478C32000800000020440000206D
:1031EC0044000020F0010020FEE7000070B500252F
:1031FC000C4E0D4CA41BA410A54209D100F01AF8DA
:10320C0000250A4E0A4CA41BA410A54205D170BD82
:10321C0056F8253098470135EEE756F82530984793
:10322C000135F2E784320008843200088432000849
:10323C0088320008F8B500BFF8BC08BC9E46704741
:0C324C00F8B500BFF8BC08BC9E467047F7
:1032580002030405060708090A0B0C0D0E0F1010CF
:103268000102000000000000000000000102030449
:0C32780006070809000000000102030422
:04328400310100080C
:043288000D0100082C
:10328C0001000000100000000000F041EC51B83DBE
:10329C0000004040000000000000000000000000A2
:1032AC000AD7A33B00000000000000000000000053
:1032BC00000000000000000000007F430AA0A000F6
:0432CC0000A24A040E
:04000005080031AD11
:00000001FF
