:020000040800F2
:1000000020060020010100085F1A0008E918000816
:100010005D1A00083B0600084121000800000000AE
:100020000000000000000000000000005F1B00084E
:100030003D060008000000005D1B0008611B000871
:100040001B0100081B0100081B0100081B01000820
:100050001B0100081B0100081B0100081B01000810
:100060001B0100081B0100081B0100081B01000800
:100070001B0100081B0100081B0100081B010008F0
:100080001B0100081B0100081B0100081B010008E0
:100090001B0100081B0100081B0100081B010008D0
:1000A0001B0100081B0100081B0100081B010008C0
:1000B0001B010008FD1B00081B0100081B010008B4
:1000C0001B0100081B0100081B0100081B010008A0
:1000D0001B010008352100081B0100081B01000856
:1000E0001B0100081B0100081B010008DFF80CD0F1
:1000F00000F082FA00480047612100082006002035
:100100000648804706480047FEE7FEE7FEE7FEE7B1
:10011000FEE7FEE7FEE7FEE7FEE7FEE7B51B0008A9
:10012000ED000008202A04DB203A21FA02F0002129
:10013000704721FA02F3D040C2F1200291400843F7
:1001400019467047D2B201E000F8012B491EFBD2DC
:1001500070470022F6E710B513460A4604461946D2
:10016000FFF7F0FF204610BDF0B480EA0102D40F83
:100170004200B2EB410F02D20246084611464A0045
:1001800042D0C30DDDB2C1F3C752AD1A202D35DA0E
:10019000C1F3160141F4000204B15242C5F1200638
:1001A00002FA06F12A411044B3EBD05F23D0C4B168
:1001B000012DA0EBC35009DCF0BC4FF0004202EA75
:1001C000C352DBB200F5000000F08BB9400000F133
:1001D000807000EBC350A0F1807040EAD1704900FC
:1001E00009E0490841EAC071A0EBC35000F50000E6
:1001F000400800EBC350F0BC00F06AB96142012234
:1002000002EB4101001BF6E7F0BC704781F00041B2
:10021000AAE780F00040A7E780EA010210B502F0EB
:100220000043400022D04A001FD0010E01EB1261B2
:10023000C0F35600C2F3560240F4000042F400023C
:10024000A0FB022000047F39140400D0401C50EAB7
:10025000124001D44000491EC2B20C0604EBD0107B
:10026000401C4008802A02D003E0002010BD20F08E
:100270000100002900DA0020184310BD30B480EAE4
:10028000010202F0004530F0004221F0004013D09E
:1002900090B1C30DD40DC2F31601C0F31600E41AD9
:1002A00041F4000140F400027D34914201D3641C0A
:1002B00000E04900002C02DA30BC002070474FF407
:1002C00000000023914201D3891A034340084FEAFA
:1002D0004101F7D151B1914202D14FF0004105E007
:1002E00002D24FF0010101E06FF0010103EBC450B5
:1002F000284430BC00F0ECB8420005D0C0F3C7522F
:100300005242914201DC0020704700EBC15070471F
:100310002DE9FE4F81EA030404F0004421F000417E
:1003200000944FF0000B23F0004350EA01045ED02C
:1003300052EA03045BD0C3F30A54C1F30A552C44B8
:10034000A4F2F3340194A0FB0254C1F3130141F46D
:100350008011C3F3130343F4801301FB024400FB39
:10036000034E840A970A44EA815447EA8357A4FB60
:10037000076802958D0A05FB07854FEA932C04FB5D
:100380000C542705029D4FEA065847EA1637B5EB8D
:1003900008056EEB070C870E920E47EA811742EABA
:1003A0008312A7FB0201B6EB0B0164EB00042B0DDB
:1003B00043EA0C335E1844EB1C50DA465146E7FB27
:1003C0000201C5F313044FEA0B3343EA14534FEA17
:1003D0000432019C43EA0603A4F10C040294009C3D
:1003E000CDE900B400F0BAF803B0BDE8F08F00200A
:1003F0000146F9E770B521F0004303430CD0C1F387
:100400000A550024D5EB040564EB0403D617AD1A96
:10041000B34102DB0020014670BD201841EB0251C0
:1004200070BDC10F80EAE0700844CA07962300211E
:1004300000F057B820F00040C10DC0F3160040F4A2
:1004400000007F2901DA00207047962903DCC1F102
:100450009601C840704796398840704700F00042C6
:1004600030F000400AD0C10D01F56071C0F31600F4
:1004700042EA0151C208400711437047002001467B
:10048000704701F0004330B421F0004150EA01020E
:1004900006D00A0DA2F56072C1F31301002A02DC36
:1004A00030BC00207047440F44EAC104C100E0188A
:1004B00030BC00EBC25000F00BB80000002801DB9C
:1004C000C0F10040002901DBC1F1004188427047C2
:1004D0000029A8BF7047401C490008BF20F0010058
:1004E000704710B4B0FA80FC00FA0CF050EA010436
:1004F00004BF10BC704749B1CCF1200421FA04F4C8
:1005000011FA0CF118BF012121430843A3EB0C01A0
:10051000CB1D4FEA00614FEA102042BF002010BC03
:10052000704700EBC35010440029A4BF10BC7047B3
:10053000401C490008BF20F0010010BC704710B5F6
:10054000141E73F1000408DA401C41F100019218F6
:100550005B411A4301D120F0010010BD2DE9F04D9F
:1005600092469B4611B1B1FA81F202E0B0FA80F2F4
:100570002032904600F052F804460F4640EA0A0046
:1005800041EA0B0153465A46084313D0114653EA39
:10059000010019D0C8F140025046FFF7C3FD0546DF
:1005A0000E4650465946424600F038F8084305D0FA
:1005B000012004E020463946BDE8F08D00200543C7
:1005C00046EAE0762C4337430A986305E40AA0EB39
:1005D00008000022FD0A44EA47540A3002D50020F0
:1005E0000146E9E7010510196941DDE908450019EF
:1005F0006941BDE8F04DA2E7064C074D06E0E06812
:1006000040F0010394E8070098471034AC42F6D359
:10061000FFF770FD7022000890220008202A04DBFA
:10062000203A00FA02F1002070479140C2F1200305
:1006300020FA03F3194390407047FEE7704700002B
:1006400010B590F821100024022903D00421816301
:1006500001243DE001680A6822F00E020A60016888
:100660000A6822F001020A601A4A0168914201D127
:10067000012121E0174A1432914201D110211BE0DF
:10068000144A2832914201D1891515E0114A3C32B1
:10069000914201D189140FE00E4A5032914202D1A9
:1006A0004FF4803108E00B4A6432914202D14FF49A
:1006B000801101E04FF08071064A083A5160012133
:1006C00080F82110002180F82010416B01B188478B
:1006D000204610BD080002402DE9F84FDFF890A138
:1006E00000220AF1040B144601274FF00F090BF109
:1006F000040E00BF0B6807FA04F52B40AB4274D11F
:10070000DFF870C14E68A6EB0C0866452BD00DDCF7
:10071000032E34D005DC36B3012E19D0022E2FD192
:100720001BE0112E16D0122E2AD119E0B8F5881F21
:1007300019D006DCB8F5803F15D0B8F5801F1FD161
:1007400011E0B8F5001F0ED0B8F5041F18D10AE06B
:10075000CA6815E0CA68121D12E0CA6808320FE0C4
:10076000CA680C320CE08A682AB1012A4FF00802EC
:1007700003D0456104E0042202E0056100E00022AC
:10078000FF2B01D8064601E000F104064FEA84057C
:1007900001D9A5F12005D6F800C009FA05F82CEA20
:1007A000080C02FA05F54CEA050CC6F800C04D68C5
:1007B000ED0057D5304DAE6946F00106AE61AD692A
:1007C00024F0030605F0010500952C4D06EB050C01
:1007D000DCF80850A6074FEA167809FA08F6B54380
:1007E000274EB04202D1002610E03BE0254EB04239
:1007F00001D101260AE0244EB04201D1022605E0D3
:10080000224EB04201D1032600E0042606FA08F683
:100810002E43CCF808604D68DAF80060ED035546C9
:1008200001D51E4300E09E432E604D68DBF800605A
:10083000AD035D4601D51E4300E09E432E604D682A
:10084000DEF80060ED02754601D51E4300E09E43D0
:100850002E604D68AD020E4D2E6801D51E4300E09E
:100860009E432E60641C102CFFF444AFBDE8F88F4B
:10087000000401400000111000100240000001407F
:1008800000080140000C014000100140001401402C
:100890000C0401408068084000D0012070470AB174
:1008A000016170470904FBE7014880687047000058
:1008B000500000200248816802781144816070472E
:1008C00050000020074810B5016841F01001016098
:1008D000032000F073F8002000F006F800F024F880
:1008E000002010BD0020024070B50D4D04464FF4AD
:1008F0007A712878B1FBF0F00A490968B1FBF0F091
:1009000000F0FCFA48B9102C07D200222146501EF4
:1009100000F034F800206C6070BD012070BD000054
:10092000500000205C0000200C4808B5816941F0AF
:1009300001018161816901F001010091C16941F00A
:100940008051C161C06900F0805000900448416846
:1009500021F0E06141F00071416008BD00100240EB
:100960000000014000F01F02012191404009800079
:1009700000F1E020C0F8001170470000F0B40E4B09
:100980001B680C46C3F30223C3F10705042D00D9ED
:100990000425191D072901D2002300E0DB1E0126D2
:1009A00006FA05F1491E214099409E40761E1640E8
:1009B0003143F0BC01F054B80CED00E0064900F002
:1009C000070208684FF6FF03184040EA0220034A76
:1009D00010430860704700000CED00E00000FA05CD
:1009E0002DE9F047DFF8548105460E46D8F800009F
:1009F00000F00700B0420CD2D8F8001021F0070137
:100A00003143C8F80010D8F8000000F00700B042E9
:100A10006FD128684A4C810712D5400703D560681A
:100A200040F4E06060602878000703D5606840F417
:100A3000605060606068A96820F0F0000843606062
:100A40002878C00744D06868012816D02168022899
:100A500016D0890700294CDA616821F003010143AF
:100A60006160FFF721FF6968074641F2883001297C
:100A70000ED00229814618D026E021688903E9E7D3
:100A80008901E7E7FFF710FFC11B494501D918E0CD
:100A900081466068C0F381000128F3D118E000BFEF
:100AA000FFF702FFC11B49450BD86068C0F3810006
:100AB0000228F5D10CE000BFFFF7F6FEC11B494547
:100AC00002D90320BDE8F087606810F00C0FF3D165
:100AD000D8F80010404601F00701B1420BD9016877
:100AE00021F0070131430160006800F00700B042C7
:100AF00001D00120E6E72878400705D56068E9685D
:100B000020F4E060084360602878000706D560683C
:100B1000296920F4605040EAC100606000F036F8B6
:100B20006168084AC1F30311515CC8400649086076
:100B30000020FFF7D9FE0020C4E70000002002409B
:100B400000100240582200085C00002004480549BB
:100B500000684968044AC1F30221515CC8407047EB
:100B60005C0000200010024068220008044805498B
:100B700000684968044AC1F3C221515CC84070470B
:100B80005C000020001002406822000812A185B01D
:100B90000FC98DE80F0014A0144A00680490516832
:100BA000134801F00C03042B10D0082B0ED1C1F315
:100BB0008343C9031DF803000AD5516804AAC1F391
:100BC0004041515C0A4A5043B0FBF1F005B0704718
:100BD00008494843FAE7000002030405060708092C
:100BE0000A0B0C0D0E0F1010010200000010024045
:100BF00000127A0000093D002DE9F84F0446007804
:100C0000B94DC00748D06868C0F38100012807D0FB
:100C10006868C0F38100022809D16868C00306D55E
:100C20002868800338D5606800286FD034E0606899
:100C3000B0F5803F0BD010B1B0F5A02F11D02868CF
:100C400020F480302860286820F4802002E02868A2
:100C500040F480302860606888B1FFF725FE0646C2
:100C600009E0286840F480202860F0E7FFF71CFEC8
:100C7000801B642875D828688003F7D50CE0FFF73F
:100C800013FE064605E000BFFFF70EFE801B64283A
:100C9000F0D828688003F7D42078944E80074FF06E
:100CA00001094FF000083BD5686810F00C0F07D021
:100CB0006868C0F38100022809D16868C00306D4BF
:100CC0002868800714D5206901281FD110E0206909
:100CD000B0B1C6F80090FFF7E7FD074605E000BF9A
:100CE000FFF7E2FDC01B0228C4D828688007F7D5AB
:100CF0002868616920F0F80040EAC10028600FE030
:100D0000C6F80080FFF7D0FD074606E0E9E000BF27
:100D1000FFF7CAFDC01B022823D828688007F7D434
:100D2000207800072CD57248A169D9B1C0F800908D
:100D3000FFF7BAFD074604E0FFF7B6FDC01B022827
:100D40000FD8686A8007F7D56A484FF4FA510068EF
:100D5000B0FBF1F0009000BF0098411E0091FAD264
:100D60000EE080E0C0F80080FFF79EFD074604E03B
:100D7000FFF79AFDC01B022875D8686A8007F7D470
:100D80002078400760D5E8690027C00008D4E869EA
:100D900040F08050E861E869012700F08050009041
:100DA00055480168C90513D40168834641F4807130
:100DB0000160FFF779FD824606E000BFFFF774FD92
:100DC000A0EB0A0064284ED8DBF80000C005F5D57A
:100DD000E06801280AD008B1052813D0286A20F05D
:100DE00001002862286A20F0040002E0286A40F02E
:100DF00001002862E06841F2883B98B1FFF754FD9A
:100E000082460BE0286A40F004002862EEE700BF4B
:100E1000FFF74AFDA0EB0A0159455AD8286A800716
:100E2000F6D50CE0FFF740FD824605E0FFF73CFDFC
:100E3000A0EB0A0159454CD8286A8007F6D41FB1A7
:100E4000E86920F08050E861E06988B36968C1F31F
:100E50008101022945D00228C6F8608004D0FFF73E
:100E600023FD044638E034E0FFF71EFD074604E0AA
:100E7000FFF71AFDC01B02282BD828688001F7D481
:100E8000206AB0F5803F05D16868A16820F4003081
:100E900008436860D4E908010843696821F47411C3
:100EA00008436860C6F86090FFF7FEFC044606E061
:100EB00015E000BFFFF7F8FC001B022809D82868DE
:100EC0008001F7D50BE000BFFFF7EEFC001B022806
:100ED00002D90320BDE8F88F28688001F4D40020EF
:100EE000F8E70120F6E7000000100240000042424F
:100EF000800442425C0000200070004010B5401E9B
:100F0000B0F1807F01D3012010BD4FF0E02460617B
:100F10000F21601700F0A4FD0020A06107202061D0
:100F2000002010BD7047704730B590F83C20012A72
:100F300020D0012280F83C20022380F83D30036855
:100F40005C6824F070045C6003685C680D682C4386
:100F50005C6003689C6824F080049C6003689C6863
:100F600049680C439C6080F83D20002180F83C10CB
:100F7000084630BD022030BD10B5040003D094F8FF
:100F80003D0010B107E0012010BD002084F83C00B6
:100F9000204600F00DF8022084F83D00211D206855
:100FA00000F032FE012084F83D00002010BD00005A
:100FB00008B5114A01681148914211D1C16941F047
:100FC0000201C161C069002200F0020000901146D8
:100FD0001D20FFF7D3FCBDE808401D20FFF7C2BC71
:100FE000074A914207D1C16941F00401C161C0695A
:100FF00000F00400009008BD000400400010024012
:10100000000800400168CA6842F00102CA60006836
:10101000016841F0010101600020704770B504468D
:1010200090F83C00012817D0012584F83C5002209C
:1010300084F83D002068826822F0770222F47F4223
:1010400082600868502837D00DDC202859D005DC94
:1010500088B3102841D151E0022070BD302853D010
:1010600040283AD13FE060282ED070280BD0B0F550
:10107000805F03D0B0F5005F2FD110E02068816859
:1010800021F0070115E0CB68D1E90121206800F0CB
:10109000FCFD2168886840F0770088601DE0CB681F
:1010A000D1E90121206800F0F0FD2068816841F459
:1010B0008041816011E01EE0CA684968206800F044
:1010C00099FE5021206806E0CA684968206800F04F
:1010D000A2FE6021206800F0E2FD84F83D5000206F
:1010E00084F83C0070BDCA684968206800F082FE40
:1010F00040212068EFE700212068ECE710212068FC
:10110000E9E720212068E6E730212068E3E770471F
:1011100070B50446006801694FF00005C9438907AE
:1011200015D4C168C943890711D4E91E01610120A2
:101130002077206880698007204602D0FFF7E7FF0C
:1011400004E000F0BFF8204600F041F92577206860
:101150000169C943490717D4C168C943490713D472
:101160006FF004010161022020772068806910F48B
:10117000407F204602D0FFF7CAFF04E000F0A2F84B
:10118000204600F024F9257720680169C943090742
:1011900016D4C168C943090712D46FF00801016170
:1011A000042020772068C0698007204602D0FFF71E
:1011B000AEFF04E000F086F8204600F008F925773D
:1011C00020680169C943C90617D4C168C943C90663
:1011D00013D46FF010010161082020772068C069E6
:1011E00010F4407F204602D0FFF791FF04E000F0AA
:1011F00069F8204600F0EBF8257720680169C943BB
:10120000C90708D1C168C943C90704D1891E016152
:10121000204600F0F5F820680169C943090609D4A1
:10122000C168C943090605D46FF0800101612046F9
:10123000FFF778FE20680169C943490609D4C168EF
:10124000C943490605D46FF040010161204600F012
:1012500099F920680169C94389060BD4C168C9435B
:10126000890607D46FF0200101612046BDE8704077
:10127000FFF759BE70BD000000B585B00021009198
:1012800001910291039100680B49884212D10B48E9
:10129000816941F0080181618069694600F00800B8
:1012A00004904FF440700090022001900390044895
:1012B000FFF712FA05B000BD000800400010024020
:1012C000000C0140704770B5044690F83C000D4694
:1012D00001280DD0012684F83C60022084F83D00EE
:1012E00042B1042A18D0082A2AD00C2A4DD139E05C
:1012F000022070BD206800F0DBFC2068816941F0AD
:10130000080181612068816921F004018161206800
:1013100081692A69114311E0206800F0F1FC20681E
:10132000816941F4006181612068816921F48061F3
:101330008161206881692A6941EA0221816124E092
:10134000206800F009FD2068C16941F00801C16111
:101350002068C16921F00401C1612068C1692A695E
:10136000114311E0206800F023FD2068C16941F4B9
:101370000061C1612068C16921F48061C161206898
:10138000C1692A6941EA0221C16184F83D600020F7
:1013900084F83C0070BD10B5040003D094F83D0003
:1013A00010B107E0012010BD002084F83C00204669
:1013B00000F00CF8022084F83D00211D206800F0A8
:1013C00023FC012084F83D00002010BD70477047C9
:1013D00010B504460068012200F04CFC0749206863
:1013E000884203D1416C41F40041416420680168A6
:1013F00041F001010160002010BD0000002C0140FF
:101400002DE9F0410068564988427DD1554C202194
:101410002046FFF73FFA544D1021E8702046FFF7B1
:1014200039FAA87008212046FFF734FA68704FF4A3
:1014300000414E48FFF72EFA2870A5F11404002051
:10144000D4E901612A5C12B90644491C761C401C8F
:101450000328F7DD0846FEF7E4FF05463046FEF7B1
:10146000E0FF2946FEF70AFF00266660C4E9026035
:101470004FF080484FF07E57404501D13C4812E084
:101480003C49884201D127611BE0B84202D14FF0AC
:10149000404008E0B0F1814F07D04FF07F518842C3
:1014A00006D13448404220610BE0C4F8108008E0C7
:1014B000314A904201D1266103E0304A904200D186
:1014C0002161294800220830216900F0D9FAA06181
:1014D00020692B4D10F0FF4F0CD13946002000F051
:1014E00073FE0021384600F06FFE2968C820C863EB
:1014F000296808642069B0F5000F10DB3946002028
:1015000000F062FE002100E028E0384600F05CFEBA
:10151000A069FEF78FFF2968C86328680664206900
:1015200010F1FF4F10D33946002000F04DFE00218E
:10153000384600F049FE2868C663A06980F0004084
:10154000FEF778FF29680864E06810F0FF4F05D1C6
:101550004046BDE8F041002100F036BEBDE8F08114
:1015600000040040000C014014000020000801406D
:10157000000080BF000040400000204000006040AC
:10158000A00000207047704770B5026804461068DC
:10159000D168536910F00F0F50D003F0010501F42A
:1015A000907635435DD0C20705D0CA0503D5E26BFE
:1015B00042F00102E263420705D5DA0703D0E26B8D
:1015C00042F00202E263820705D5DA0703D0E26B3C
:1015D00042F00402E263020705D5DA0703D0E26BAA
:1015E00042F00802E263E26B002A33D0800604D5A1
:1015F000880602D5204600F036FC20684069E16B81
:10160000C0F38010090700D428B3204600F01DFC69
:101610002068416949061AD5416921F040014161BC
:10162000606BA0B11B494163606BFFF709F80028AC
:1016300010D0606B416BBDE870400847830610D541
:101640008B060ED52046BDE8704000F00CBC20464D
:10165000FFF799FF70BD2046FFF795FF0020E0637C
:1016600070BD030606D50B0604D52046BDE87040C4
:1016700000F0FCBC4006F3D54806F1D5D168204601
:1016800021F04001D160202184F8391000F02BF9BD
:1016900070BD00003B1E000870B5040004D094F833
:1016A0003900002510B106E0012070BD84F83850E3
:1016B000204600F023F8242084F839002068C1680F
:1016C00021F40051C160204600F018FC2068016937
:1016D00021F4904101612068416921F02A014161B2
:1016E0002068C16841F40051C160E563202084F89E
:1016F000390084F83A00002070BD000030B585B094
:1017000000240094019402940394006818498842CC
:101710002CD11848816941F480418161816901F4CB
:1017200080410491816941F0040181618069124D19
:1017300000F0040004904FF400700090022001902B
:101740000320039069462846FEF7C6FF2815CDE919
:101750000004694628460294FEF7BEFF00221146A7
:101760002520FFF70BF92520FFF7FCF805B030BD69
:1017700000380140001002400008014090F83A3063
:10178000202B22D1F9B1F2B190F83830012B1CD0C6
:1017900081628285C2850021C163222280F83A20BD
:1017A00080F838100168CA6842F48072CA60016823
:1017B0004A6942F001024A610068C16841F02001B3
:1017C000C160002070470120704702207047000070
:1017D00070B500681249884217D11249FF22A1F161
:1017E0004000FFF7CBFF0F480025012600780E4C84
:1017F0006B1E43280AD0412807D10A49FF22A1F1D4
:10180000400000F013F86570267070BD667025709A
:10181000BDE870400349FF22A1F1400000F006B886
:101820000038014020010020000000202DE9F8438D
:10183000044690F839001F4616460D46202850D120
:10184000A5B19EB194F8380001284AD0012084F84F
:1018500038004FF00008C4F83C80212084F839009B
:10186000FFF722F8A6848146E68426E00120BDE841
:10187000F883E08C401EE084A0684B46B0F5805FA2
:101880004FF000024FF080012046009703D000F097
:101890001EFCE8B90DE000F01AFCC8B928882168E0
:1018A000C0F308004860206908B16D1C05E0AD1C5C
:1018B00003E0216815F8010B4860E08C0028D8D1BE
:1018C0004B46002240212046009700F000FC08B162
:1018D0000320CCE7202084F8390084F838800020E9
:1018E000C5E70220C3E77047FEE7000070B586B089
:1018F000002421480094019402940394816941F0EA
:1019000020018161816901F020010491816941F028
:1019100008018161816901F008010491816941F048
:10192000040181618069154E00F0040040F6034512
:101930000490002229463046FEF7B1FF01200095B1
:10194000CDE901040220039069463046FEF7C4FE4B
:101950004FF40040CDE90004694609480294FEF7BF
:10196000BBFE3820CDE90004694630460294FEF7FC
:10197000B3FE06B070BD000000100240000C014034
:101980000008014010B586B000241248009401946C
:101990000294039404940E490594016041F61F419A
:1019A000C0E90114C821C0E903148461FFF7E4FA17
:1019B0004FF48050009069460648FFF72FFB0494CF
:1019C00004A904480594FFF7AFFA06B010BD000063
:1019D000000400406000002010B58EB00024079481
:1019E000089409940A940B941C2168460C94FEF701
:1019F000B0FB1948174901600921C0E90114FE2113
:101A0000C0E903148461FFF7B7FA4FF480500790E0
:101A100007A91148FFF702FB0F48FFF7BCFC0B9426
:101A20000BA90D480C94FFF77FFA6020CDE9000464
:101A300002940822694608480494FFF744FC0C22EB
:101A400069460548FFF73FFC0348FFF715FC0EB059
:101A500010BD000000080040A0000020FEE7704715
:101A60000907090E002806DA00F00F0000F1E02057
:101A700080F8141D704700F1E02080F800147047D2
:101A80002DE9FC5F0B46044611461846FEF7BEFBE7
:101A90000546E0602069606101902561A06A0090C0
:101AA0002946E0620846FEF7B1FB2168FEF7B4FB69
:101AB00083462946E0610846FEF756FBFEF7CEFC5A
:101AC000D4F818A0804689465046FEF7C7FC064663
:101AD0000F466068FEF7C2FC4FF0FF32FEF78AFC4B
:101AE0003B463246FEF714FC42464B46FEF710FCDE
:101AF000FEF7C7FC0646206201212846FEF7FCFBE4
:101B00002946FEF786FB0199FEF72EFB0546514656
:101B1000A068FEF7B3FB2946FEF77EFB0546606230
:101B200059460098FEF720FB3146FEF71DFB29467B
:101B3000FEF71AFBA062216BFEF7C0FC206B0BD3F3
:101B400080F00040A16AFEF7B9FC02D3A06ABDE8AC
:101B5000FC9F206B80F00040A062F8E77047704760
:101B6000FEF7A8BE30B58FB028216846FEF7F1FA1F
:101B700014210AA8FEF7EDFA01210804CDE90010AE
:101B80000024029402250491CDE907504FF4E0109F
:101B900009906846FFF730F80F20CDE90A05680282
:101BA000CDE90C4002210AA80E94FEF719FF0FB0F0
:101BB00030BD00000D48016841F00101016041683D
:101BC0000B4A1140416001680A4A114001600168F6
:101BD00021F480210160416821F4FE0141604FF44D
:101BE0001F0181600449C003086070470010024073
:101BF0000000FFF8FFFFF6FE08ED00E00148FFF7E8
:101C000087BA000060000020F0B50268164B174C40
:101C1000174D4FF08047984205D0B84203D0A042FC
:101C200001D0A84203D122F070064A68324398429C
:101C300005D0B84203D0A04201D0A84203D122F47B
:101C40004074CA68224322F080044A692243026039
:101C50008A68C2620A688262984201D10969016396
:101C600001214161F0BD0000002C01400004004052
:101C70000008004010B50123046A8B409C430462B5
:101C8000036A8A401343036210BD10B5846842EAB8
:101C9000032224F47F440A432243826010BD8268F9
:101CA00022F070020A4342F0070181607047000091
:101CB00030B5026A22F001020262026A4368846956
:101CC00024F073050C682C4322F002058A682A432D
:101CD0000A4DA8420BD122F00805CA6823F44073CC
:101CE0002A434D6922F004021D438B692B43436054
:101CF000846149684163026230BD0000002C0140EC
:101D000030B5026A22F010020262026A43688469F6
:101D10000D6824F4E64444EA05248D6822F020028C
:101D200042EA05120B4DA8420ED1CD6822F0800286
:101D300042EA05124D6923F4406343EA85038D6945
:101D400022F0400243EA850343608461496881636D
:101D5000026230BD002C014030B5026A22F480726C
:101D60000262036A4268C46923F4007324F07305B5
:101D70000C682C438D6843EA05230C4DA8420ED114
:101D8000CD6823F4006343EA05234D6922F44052F1
:101D900042EA05128D6923F4806342EA051242602B
:101DA000C4614968C163036230BD0000002C01407A
:101DB00030B5026A22F480520262046A4268C36942
:101DC0000D6823F4E64343EA05238D6824F40054A8
:101DD00044EA0534064DA84204D14D6922F48042FC
:101DE00042EA85124260C36149680164046230BD01
:101DF000002C014010B5036A046A24F00104046257
:101E0000846924F0F00444EA021423F00A020A432D
:101E10008461026210BD10B5036A23F010030362EF
:101E20008369046A23F4704343EA023224F0A00376
:101E300043EA01118261016210BD10B5406A0021C0
:101E4000C185C184FFF79FFB10BD0168CA6822F4F9
:101E50009072CA6001684A6922F001024A61202139
:101E600080F83A10704710B590F83A10222901D046
:101E7000022010BD8168B1F5805F11D00169002991
:101E800001681FD0496801F07F03816A4A1C8262A1
:101E90000B70C18D491E0904090CC18518D02BE0B7
:101EA0000269816A002A0268526805D0D2B20A80AB
:101EB000816A491C8162ECE7C2F308020A80816AE8
:101EC000891CF7E74A68816A4B1C83620A70E0E765
:101ED0000168CA6822F02002CA600168CA6822F458
:101EE0008072CA6001684A6922F001024A612021B9
:101EF00080F83A10FFF76CFC002010BD2DE9F0418E
:101F0000044600680169E26821F44051114301610F
:101F10002169A0680843616908432168CA6841F2E1
:101F20000C639A430243CA6020684169A26921F4A4
:101F30004071114341614C49206864253226884232
:101F40003CD1FEF713FE00EBC00101EB001061680D
:101F50008900B0FBF1F7FEF709FE00EBC00101EBD1
:101F600000106168B0468900B0FBF1F0B0FBF5F0FD
:101F70006FF01801484307EB800106EB0110B0FB3E
:101F8000F5F000F0F006FEF7F1FD00EBC00101EB0B
:101F9000001061688900B0FBF1F0B0FBF5F006EBD2
:101FA0000016FEF7E3FD00EBC00101EB00106168D5
:101FB0008900B0FBF1F7FEF7D9FD3BE0FEF7C6FD67
:101FC00000EBC00101EB001061688900B0FBF1F784
:101FD000FEF7BCFD00EBC00101EB00106168B046EC
:101FE0008900B0FBF1F0B0FBF5F06FF01801484349
:101FF00007EB800106EB0110B0FBF5F000F0F006F6
:10200000FEF7A4FD00EBC00101EB00106168890040
:10201000B0FBF1F0B0FBF5F006EB0016FEF796FD15
:1020200000EBC00101EB001061688900B0FBF1F723
:10203000FEF78CFD00EBC00101EB00106168890028
:10204000B0FBF1F0B0FBF5F06FF01801484307EB7F
:10205000800108EB0110B0FBF5F0216800F00F00E3
:1020600030448860BDE8F0810038014090F83910B4
:10207000212901D0022070478168B1F5805F016A93
:102080000BD04A1C0262026809785160C18C491E5B
:102090000904090CC1840ED017E009880268C1F355
:1020A0000801516001690029016A02D0491C0162DE
:1020B000ECE7891CFBE70168CA6822F08002CA606D
:1020C0000068C16841F04001C160002070472DE9FF
:1020D000F041984617460E460446069D1DE0681CD2
:1020E0001BD02DB1FEF7E0FBA0EB0800A84214D9ED
:1020F0002068C16821F4D071C1602068416921F075
:1021000001014161202084F8390084F83A00002060
:1021100084F838000320BDE8F0812068006836EAC2
:10212000000004D00020B842D9D00020F3E70120FD
:10213000F9E700000148FFF727BA0000E00000209F
:10214000FEE702E008C8121F08C1002AFAD1704752
:102150007047002001E001C1121F002AFBD1704727
:10216000FEF7B0FBFFF7FEFCFFF7C0FB1548144974
:102170000C2201604FF41651416000218160C16062
:10218000C0E904128161C161FFF786FAFFF724FC00
:10219000FFF7F8FB0B4808214038FFF719F9094809
:1021A0000C214038FFF714F906488038FEF72AFF63
:1021B0000449A02040390A68D06309680864FEE732
:1021C00000380140E000002070B5214C10F0FF4FB6
:1021D0004FF07E5212D090422FD111F0FF4F25D0F8
:1021E000914233D1012202212046FEF758FB002202
:1021F00001212046BDE87040FEF751BB11F0FF4FB2
:102200004FF480604FF4006509D091421ED1014621
:1022100001222046FEF743FB00222946E9E701465A
:1022200000222046FEF73BFB0122F6E700220221B6
:102230002046FEF734FB0122DAE7B0F1804F05D1EA
:10224000044900200A68D0630968086470BD000072
:10225000000C0140A0000020000000000000000071
:10226000010203040607080900000000010203043C
:1022700090220008000000206000000042210008B9
:10228000F022000860000020C00500005221000874
:10229000000000000000000000000000000000003E
:1022A0000000000000000000000000000000C84125
:1022B0008FC2753D0000404000000000000000009B
:1022C000000000000AD7A33C00000000000000004E
:1022D00000000000000000000000000000007F433C
:1022E00001000000100000000000000000A24A04ED
:04000005080000ED02
:00000001FF
